{
  "address": "0xE766d0720f91fB200247A0A880BF0C13FDe7fD71",
  "abi": [
    {
      "inputs": [
        {
          "internalType": "address",
          "name": "owner",
          "type": "address"
        }
      ],
      "name": "OwnableInvalidOwner",
      "type": "error"
    },
    {
      "inputs": [
        {
          "internalType": "address",
          "name": "account",
          "type": "address"
        }
      ],
      "name": "OwnableUnauthorizedAccount",
      "type": "error"
    },
    {
      "anonymous": false,
      "inputs": [
        {
          "indexed": true,
          "internalType": "address",
          "name": "previousOwner",
          "type": "address"
        },
        {
          "indexed": true,
          "internalType": "address",
          "name": "newOwner",
          "type": "address"
        }
      ],
      "name": "OwnershipTransferred",
      "type": "event"
    },
    {
      "inputs": [
        {
          "internalType": "bytes32",
          "name": "providerId",
          "type": "bytes32"
        },
        {
          "internalType": "bytes32",
          "name": "publicKeyHash",
          "type": "bytes32"
        }
      ],
      "name": "checkPublicKey",
      "outputs": [
        {
          "internalType": "bool",
          "name": "",
          "type": "bool"
        }
      ],
      "stateMutability": "view",
      "type": "function"
    },
    {
      "inputs": [
        {
          "internalType": "uint256[18]",
          "name": "publicKeyLimbs",
          "type": "uint256[18]"
        },
        {
          "internalType": "uint256[18]",
          "name": "publicKeyRedcLimbs",
          "type": "uint256[18]"
        }
      ],
      "name": "getPublicKeyHash",
      "outputs": [
        {
          "internalType": "bytes32",
          "name": "",
          "type": "bytes32"
        }
      ],
      "stateMutability": "pure",
      "type": "function"
    },
    {
      "inputs": [
        {
          "internalType": "bytes32",
          "name": "",
          "type": "bytes32"
        },
        {
          "internalType": "bytes32",
          "name": "",
          "type": "bytes32"
        }
      ],
      "name": "isPublicKeyHashValid",
      "outputs": [
        {
          "internalType": "bool",
          "name": "",
          "type": "bool"
        }
      ],
      "stateMutability": "view",
      "type": "function"
    },
    {
      "inputs": [],
      "name": "owner",
      "outputs": [
        {
          "internalType": "address",
          "name": "",
          "type": "address"
        }
      ],
      "stateMutability": "view",
      "type": "function"
    },
    {
      "inputs": [],
      "name": "renounceOwnership",
      "outputs": [],
      "stateMutability": "nonpayable",
      "type": "function"
    },
    {
      "inputs": [
        {
          "internalType": "bytes32",
          "name": "providerId",
          "type": "bytes32"
        },
        {
          "internalType": "bytes32",
          "name": "publicKeyHash",
          "type": "bytes32"
        },
        {
          "internalType": "bool",
          "name": "valid",
          "type": "bool"
        }
      ],
      "name": "setPublicKeyValid",
      "outputs": [],
      "stateMutability": "nonpayable",
      "type": "function"
    },
    {
      "inputs": [
        {
          "internalType": "address",
          "name": "newOwner",
          "type": "address"
        }
      ],
      "name": "transferOwnership",
      "outputs": [],
      "stateMutability": "nonpayable",
      "type": "function"
    }
  ],
  "transactionHash": "0x8f541958c343618dd76b897f8eae8974fd4d499e0ff314140b3e22d8f1bbed6e",
  "args": [],
  "numDeployments": 1,
  "solcInputHash": "4283414bf92ee9baf7bfda0a8d5cb05f",
  "bytecode": "0x6080604052348015600f57600080fd5b503380603557604051631e4fbdf760e01b81526000600482015260240160405180910390fd5b603c816041565b506091565b600080546001600160a01b038381166001600160a01b0319831681178455604051919092169283917f8be0079c531659141344cd1fd0a4f28419497f9722a3daafe3b4186f6b6457e09190a35050565b61052c806100a06000396000f3fe608060405234801561001057600080fd5b506004361061007d5760003560e01c806380a798cf1161005b57806380a798cf146100f05780638da5cb5b1461011e578063c059d83b14610146578063f2fde38b1461015957600080fd5b806349edb8ae146100825780635879142a146100a8578063715018a6146100e6575b600080fd5b6100956100903660046103de565b61016c565b6040519081526020015b60405180910390f35b6100d66100b6366004610415565b600091825260016020908152604080842092845291905290205460ff1690565b604051901515815260200161009f565b6100ee61017f565b005b6100d66100fe366004610415565b600160209081526000928352604080842090915290825290205460ff1681565b60005460405173ffffffffffffffffffffffffffffffffffffffff909116815260200161009f565b6100ee610154366004610437565b610193565b6100ee610167366004610475565b6101e3565b6000610178838361024c565b9392505050565b61018761027f565b61019160006102d2565b565b61019b61027f565b6000928352600160209081526040808520938552929052912080547fffffffffffffffffffffffffffffffffffffffffffffffffffffffffffffff0016911515919091179055565b6101eb61027f565b73ffffffffffffffffffffffffffffffffffffffff8116610240576040517f1e4fbdf7000000000000000000000000000000000000000000000000000000008152600060048201526024015b60405180910390fd5b610249816102d2565b50565b600082826040516020016102619291906104d4565b60405160208183030381529060405280519060200120905092915050565b60005473ffffffffffffffffffffffffffffffffffffffff163314610191576040517f118cdaa7000000000000000000000000000000000000000000000000000000008152336004820152602401610237565b6000805473ffffffffffffffffffffffffffffffffffffffff8381167fffffffffffffffffffffffff0000000000000000000000000000000000000000831681178455604051919092169283917f8be0079c531659141344cd1fd0a4f28419497f9722a3daafe3b4186f6b6457e09190a35050565b600082601f83011261035857600080fd5b604051610240810181811067ffffffffffffffff821117156103a3577f4e487b7100000000000000000000000000000000000000000000000000000000600052604160045260246000fd5b604052806102408401858111156103b957600080fd5b845b818110156103d35780358352602092830192016103bb565b509195945050505050565b60008061048083850312156103f257600080fd5b6103fc8484610347565b915061040c846102408501610347565b90509250929050565b6000806040838503121561042857600080fd5b50508035926020909101359150565b60008060006060848603121561044c57600080fd5b83359250602084013591506040840135801515811461046a57600080fd5b809150509250925092565b60006020828403121561048757600080fd5b813573ffffffffffffffffffffffffffffffffffffffff8116811461017857600080fd5b8060005b60128110156104ce5781518452602093840193909101906001016104af565b50505050565b6104de81846104ab565b6104ec6102408201836104ab565b610480019291505056fea26469706673582212202df3081cb9265da914fcfc52a00140a33c64498c1ae442e6f0e8ce7120b2fcab64736f6c634300081b0033",
  "devdoc": {
    "errors": {
      "OwnableInvalidOwner(address)": [
        {
          "details": "The owner is not a valid owner account. (eg. `address(0)`)"
        }
      ],
      "OwnableUnauthorizedAccount(address)": [
        {
          "details": "The caller account is not authorized to perform an operation."
        }
      ]
    },
    "kind": "dev",
    "methods": {
      "owner()": {
        "details": "Returns the address of the current owner."
      },
      "renounceOwnership()": {
        "details": "Leaves the contract without owner. It will not be possible to call `onlyOwner` functions. Can only be called by the current owner. NOTE: Renouncing ownership will leave the contract without an owner, thereby disabling any functionality that is only available to the owner."
      },
      "transferOwnership(address)": {
        "details": "Transfers ownership of the contract to a new account (`newOwner`). Can only be called by the current owner."
      }
    },
    "version": 1
  },
  "userdoc": {
    "kind": "user",
    "methods": {
      "isPublicKeyHashValid(bytes32,bytes32)": {
        "notice": "providerId => publicKeyHash => isValid"
      }
    },
    "version": 1
  },
  "storageLayout": {
    "storage": [
      {
        "astId": 1167,
        "contract": "contracts/PublicKeyRegistry.sol:PublicKeyRegistry",
        "label": "_owner",
        "offset": 0,
        "slot": "0",
        "type": "t_address"
      },
      {
        "astId": 8191,
        "contract": "contracts/PublicKeyRegistry.sol:PublicKeyRegistry",
        "label": "isPublicKeyHashValid",
        "offset": 0,
        "slot": "1",
        "type": "t_mapping(t_bytes32,t_mapping(t_bytes32,t_bool))"
      }
    ],
    "types": {
      "t_address": {
        "encoding": "inplace",
        "label": "address",
        "numberOfBytes": "20"
      },
      "t_bool": {
        "encoding": "inplace",
        "label": "bool",
        "numberOfBytes": "1"
      },
      "t_bytes32": {
        "encoding": "inplace",
        "label": "bytes32",
        "numberOfBytes": "32"
      },
      "t_mapping(t_bytes32,t_bool)": {
        "encoding": "mapping",
        "key": "t_bytes32",
        "label": "mapping(bytes32 => bool)",
        "numberOfBytes": "32",
        "value": "t_bool"
      },
      "t_mapping(t_bytes32,t_mapping(t_bytes32,t_bool))": {
        "encoding": "mapping",
        "key": "t_bytes32",
        "label": "mapping(bytes32 => mapping(bytes32 => bool))",
        "numberOfBytes": "32",
        "value": "t_mapping(t_bytes32,t_bool)"
      }
    }
  }
}