{
  "address": "0x99E1E8F8122eAdc0a2fC1B9dFa147237Bd543cD3",
  "abi": [
    {
      "inputs": [],
      "name": "PublicInputsLengthWrong",
      "type": "error"
    },
    {
      "inputs": [],
      "name": "ShpleminiFailed",
      "type": "error"
    },
    {
      "inputs": [],
      "name": "SumcheckFailed",
      "type": "error"
    },
    {
      "inputs": [
        {
          "internalType": "bytes",
          "name": "proof",
          "type": "bytes"
        },
        {
          "internalType": "bytes32[]",
          "name": "publicInputs",
          "type": "bytes32[]"
        }
      ],
      "name": "verify",
      "outputs": [
        {
          "internalType": "bool",
          "name": "",
          "type": "bool"
        }
      ],
      "stateMutability": "view",
      "type": "function"
    }
  ],
  "transactionHash": "0xaf80294fb4216d9f9ec818fb05dc51f048bb9c743351b41318f04be4e5e943c9",
  "args": [],
  "numDeployments": 1,
  "solcInputHash": "8d3d7e5538e592539a63aff937e00165",
  "bytecode": "0x6080604052348015600f57600080fd5b50615fd08061001f6000396000f3fe608060405234801561001057600080fd5b506004361061002b5760003560e01c8063ea50d0e414610030575b600080fd5b61004361003e366004615ae0565b610057565b604051901515815260200160405180910390f35b6000806100626101b9565b9050600061007087876101ce565b604083015190915084146100b0576040517ffa06659300000000000000000000000000000000000000000000000000000000815260040160405180910390fd5b60006100c28287878660400151610b72565b90506101108686808060200260200160405190810160405280939291908181526020018383602002808284376000920191909152505050506060830151608084015186516040870151610c4d565b61018082015260006101228383610d11565b90508061015b576040517f9fc3a21800000000000000000000000000000000000000000000000000000000815260040160405180910390fd5b6000610168848685610deb565b9050806101a1576040517fa5d82e8a00000000000000000000000000000000000000000000000000000000815260040160405180910390fd5b8180156101ab5750805b9a9950505050505050505050565b6101c1615253565b6101c96118f5565b905090565b6101d661560a565b6101de61560a565b6101ec602060008587615bb3565b6101f591615bdd565b8152610205604060208587615bb3565b61020e91615bdd565b6020820152610221606060408587615bb3565b61022a91615bdd565b6040808301919091528051608080820190925290819061024d9060608789615bb3565b61025691615bdd565b815260200161026960a060808789615bb3565b61027291615bdd565b815260200161028560c060a08789615bb3565b61028e91615bdd565b81526020016102a160e060c08789615bb3565b6102aa91615bdd565b905260608201526040805160808101909152806102cc61010060e08789615bb3565b6102d591615bdd565b81526020016102ea6101206101008789615bb3565b6102f391615bdd565b81526020016103086101406101208789615bb3565b61031191615bdd565b81526020016103266101606101408789615bb3565b61032f91615bdd565b9052608080830191909152604080519182019052806103546101806101608789615bb3565b61035d91615bdd565b81526020016103726101a06101808789615bb3565b61037b91615bdd565b81526020016103906101c06101a08789615bb3565b61039991615bdd565b81526020016103ae6101e06101c08789615bb3565b6103b791615bdd565b905260a08201526040805160808101909152806103da6102006101e08789615bb3565b6103e391615bdd565b81526020016103f86102206102008789615bb3565b61040191615bdd565b81526020016104166102406102208789615bb3565b61041f91615bdd565b81526020016104346102606102408789615bb3565b61043d91615bdd565b90526101008201526040805160808101909152806104616102806102608789615bb3565b61046a91615bdd565b815260200161047f6102a06102808789615bb3565b61048891615bdd565b815260200161049d6102c06102a08789615bb3565b6104a691615bdd565b81526020016104bb6102e06102c08789615bb3565b6104c491615bdd565b90526101208201526040805160808101909152806104e86103006102e08789615bb3565b6104f191615bdd565b81526020016105066103206103008789615bb3565b61050f91615bdd565b81526020016105246103406103208789615bb3565b61052d91615bdd565b81526020016105426103606103408789615bb3565b61054b91615bdd565b905260c082015260408051608081019091528061056e6103806103608789615bb3565b61057791615bdd565b815260200161058c6103a06103808789615bb3565b61059591615bdd565b81526020016105aa6103c06103a08789615bb3565b6105b391615bdd565b81526020016105c86103e06103c08789615bb3565b6105d191615bdd565b90526101408201526040805160808101909152806105f56104006103e08789615bb3565b6105fe91615bdd565b81526020016106136104206104008789615bb3565b61061c91615bdd565b81526020016106316104406104208789615bb3565b61063a91615bdd565b815260200161064f6104606104408789615bb3565b61065891615bdd565b905260e082015261046060005b601c81101561072a576000600861067d836020615c48565b6106879190615c48565b6106919084615c5f565b905060005b60088110156107205760006106ac826020615c48565b6106b69084615c5f565b905060006106c5826020615c5f565b90506106e46106d682848c8e615bb3565b6106df91615bdd565b6121d9565b87610160015186601c81106106fb576106fb615c72565b6020020151846008811061071157610711615c72565b60200201525050600101610696565b5050600101610665565b506107376008601c615c48565b610742906020615c48565b61074c9082615c5f565b905060005b602c8110156107b7576000610767826020615c48565b6107719084615c5f565b90506000610780826020615c5f565b90506107916106d682848a8c615bb3565b85610180015184602c81106107a8576107a8615c72565b60200201525050600101610751565b506107c4602c6020615c48565b6107ce9082615c5f565b905060005b6107df6001601c615ca1565b8110156108ff5760006107f3826080615c48565b6107fd9084615c5f565b9050600061080c826020615c5f565b905080600061081c826020615c5f565b905080600061082c826020615c5f565b905080600061083c826020615c5f565b905060405180608001604052808f8f8b908b9261085b93929190615bb3565b61086491615bdd565b60001c81526020018f8f8990899261087e93929190615bb3565b61088791615bdd565b60001c81526020018f8f879087926108a193929190615bb3565b6108aa91615bdd565b60001c81526020018f8f859085926108c493929190615bb3565b6108cd91615bdd565b90526101a08c01518a601b81106108e6576108e6615c72565b60200201525050600190960195506107d3945050505050565b5061090c6001601c615ca1565b610917906080615c48565b6109219082615c5f565b905060005b601c81101561098c57600061093c826020615c48565b6109469084615c5f565b90506000610955826020615c5f565b90506109666106d682848a8c615bb3565b856101c0015184601c811061097d5761097d615c72565b60200201525050600101610926565b50610999601c6020615c48565b6109a39082615c5f565b90506040518060800160405280868684908560206109c19190615c5f565b926109ce93929190615bb3565b6109d791615bdd565b60001c815260200186868460206109ee9190615c5f565b906109fa866040615c5f565b92610a0793929190615bb3565b610a1091615bdd565b81526020018686610a22856040615c5f565b90610a2e866060615c5f565b92610a3b93929190615bb3565b610a4491615bdd565b81526020018686610a56856060615c5f565b90610a62866080615c5f565b92610a6f93929190615bb3565b610a7891615bdd565b90526101e0830152610a8b816080615c5f565b9050604051806080016040528086868490856020610aa99190615c5f565b92610ab693929190615bb3565b610abf91615bdd565b60001c81526020018686846020610ad69190615c5f565b90610ae2866040615c5f565b92610aef93929190615bb3565b610af891615bdd565b81526020018686610b0a856040615c5f565b90610b16866060615c5f565b92610b2393929190615bb3565b610b2c91615bdd565b81526020018686610b3e856060615c5f565b90610b4a866080615c5f565b92610b5793929190615bb3565b610b6091615bdd565b90526102008301525090505b92915050565b610b7a61583a565b6000610b8886868686612205565b604086019190915260208501919091529083529050610ba7818761265c565b608085019190915260608401919091529050610bc38187612731565b60a08401919091529050610bd6816128b1565b60c08401919091529050610bea8682612914565b60e08401919091529050610bfe86826129eb565b6101008401919091529050610c138682612a79565b6101208401919091529050610c288682612be9565b6101408401919091529050610c3d8682612c5d565b5061016083015250949350505050565b600060018082610c7287610c6d8a610c686106df8a8c615c5f565b612cb5565b612ce2565b90506000610c9188610c8c8b610c686106df8b6001615c5f565b612d0f565b905060005b6043811015610d06576000610cc38c8381518110610cb657610cb6615c72565b60200260200101516121d9565b9050610cd386610c688684612ce2565b9550610ce385610c688584612ce2565b9450610cef848c612ce2565b9350610cfb838c612d0f565b925050600101610c96565b506101ab8484612d65565b6000806001815b6012811015610dcd57600086610160015182601c8110610d3a57610d3a615c72565b602002015190506000610d4d8286612d7b565b905080610d86576040517f9fc3a21800000000000000000000000000000000000000000000000000000000815260040160405180910390fd5b60008760e0015184601c8110610d9e57610d9e615c72565b60200201519050610daf8382612d9f565b9550610dbd88868387612fc1565b9450505050806001019050610d18565b506000610ddb868684612ffe565b90508281145b9695505050505050565b6000610e1f6040518060a0016040528060008152602001600081526020016000815260200160008152602001600081525090565b6000610e2f846101200151613078565b9050610e396158b4565b610e416158d3565b6000610e4d87856130dd565b8051610140890151919250610e6e91610c6d908460015b6020020151612cb5565b8552610120870151610e9c90610e8390613170565b82516101408a0151610c689190610c8c90866001610e64565b602086810191909152600184526101e08a015160408051808201825260008082529084015280518082018252828401518351608891821b178252606084015192909301519190921b17918101919091528252600160608601819052600060808701525b60238111610fa557610f21610f178760000151613204565b8760600151612cb5565b8482604a8110610f3357610f33615c72565b602002015260808601516101808b0151610f769190610c6d90610f57600186615ca1565b602c8110610f6757610f67615c72565b60200201518960600151612cb5565b60808701526060860151610100890151610f909190612cb5565b6060870152610f9e81615cb4565b9050610eff565b506000610fb460236001615c5f565b90505b602c811161103457610fcf610f178760200151613204565b8482604a8110610fe157610fe1615c72565b602002015260808601516101808b01516110059190610c6d90610f57600186615ca1565b6080870152606086015161010089015161101f9190612cb5565b606087015261102d81615cb4565b9050610fb7565b50606088015182600160200201526080880151826002602002015260a0880151826003602002015260c0880151826004602002015260e08801518260056020020152610100880151826006602002015261012088015182600760200201526101408801518260086020020152610180880151826009602002015261016088015182600a60200201526101a088015182600b60200201526101c088015182600c60200201526101e088015182600d602002015261020088015182600e602002015261022088015182600f60200201526102408801518260106020020152610260880151826011602002015261028088015182601260200201526102a088015182601360200201526102c088015182601460200201526102e08801518260156020020152610300880151826016602002015261032088015182601760200201526103408801518260186020020152610360880151826019602002015261038088015182601a60200201526103a088015182601b602002015260608901516111ff906040805180820190915260008082526020820152604051806040016040528060888460200151901b846000015117815260200160888460600151901b8460400151178152509050919050565b6103808301526080890151604080518082018252600080825260209182015281518083018352818401518451608891821b178252606085015193909401519290931b909117908201526103a083015260a0890151604080518082018252600080825260209182015281518083018352818401518451608891821b178252606085015193909401519290931b909117908201526103c083015260c0890151604080518082018252600080825260209182015281518083018352818401518451608891821b178252606085015193909401519290931b909117908201526103e083015260e0890151604080518082018252600080825260209182015281518083018352818401518451608891821b178252606085015193909401519290931b90911790820152610400830152610140890151604080518082018252600080825260209182015281518083018352818401518451608891821b178252606085015193909401519290931b90911790820152610420830152610100890151604080518082018252600080825260209182015281518083018352818401518451608891821b178252606085015193909401519290931b90911790820152610440830152610120890151604080518082018252600080825260209182015281518083018352818401518451608891821b178252606085015193909401519290931b909117908201526104608301526103008801516104808301526103208801516104a08301526103408801516104c08301526103608801516104e0830152606089810151604080518082018252600080825260209182015281518083018352818401518451608891821b1782529484015192909301519190931b17918101919091526105008301526080890151604080518082018252600080825260209182015281518083018352818401518451608891821b178252606085015193909401519290931b9091179082015261052083015260a0890151604080518082018252600080825260209182015281518083018352818401518451608891821b178252606085015193909401519290931b9091179082015261054083015260c0890151604080518082018252600080825260209182015281518083018352818401518451608891821b178252606085015193909401519290931b9091179082015261056083015260e0890151604080518082018252600080825260209182015281518083018352818401518451608891821b178252606085015193909401519290931b90911790820152610580830152600060408601526101408701516115bb90613230565b606086015260005b6115cf6001601c615ca1565b81101561173f5760006115e460016012615ca1565b821015905060008161164e5760608801516116159085611605866002615c5f565b601d8110610e6457610e64615c72565b905061162081613204565b868461162e602c6001615c5f565b6116389190615c5f565b604a811061164857611648615c72565b60200201525b61167d8860400151610c6d838f6101c0015187600161166d9190615c5f565b601c8110610e6457610e64615c72565b604089015260608801516101408b01516116979190612cb5565b60608901526101a08c01516117089084601b81106116b7576116b7615c72565b60200201516040805180820190915260008082526020820152604051806040016040528060888460200151901b846000015117815260200160888460600151901b8460400151178152509050919050565b8584611716602c6001615c5f565b6117209190615c5f565b604a811061173057611730615c72565b602002015250506001016115c3565b5060006117578887608001518c6101c001518861323c565b604087015190915061176f90610c6d83856000610e64565b604087018190526101c08b0151516101408a015161179e9291610c6d916117969190612cb5565b856001610e64565b60408088019190915280518082019091526001815260026020820152836117c7601c602c615c5f565b604a81106117d7576117d7615c72565b60200201526040860151846117ee601c602c615c5f565b604a81106117fe576117fe615c72565b60200201526102008a015160009061185c906040805180820190915260008082526020820152604051806040016040528060888460200151901b846000015117815260200160888460600151901b8460400151178152509050919050565b9050808461186c601c602c615c5f565b611877906001615c5f565b604a811061188757611887615c72565b60200201526101608901518561189f601c602c615c5f565b6118aa906001615c5f565b604a81106118ba576118ba615c72565b602002015260006118cb8587613341565b905060006118d883613414565b90506118e4828261348c565b9d9c50505050505050505050505050565b6118fd615253565b50604080516103c0810182526204000081526012602080830191909152604382840152825180840184526000808252818301526060830152825180840184527e23296072ba882e23ed90ee1dac8eedbb30e5b4fbbf6a8be14cc97eaa44669381527f1540513d0b8971ae7c56b28838a830801b04cc4f3a3dde06c3eac3410a2ee9c4818301526080830152825180840184527f128f4689193e8d7e352ac5f0afe29ff277d1b8b08807981784a590b82a9b5e2e81527f1aa8be7d44f5bf4c12440bd390aeb102e211af54f0c176e5a7aaecdf495435748183015260a0830152825180840184527f2b0a33558c2603b6bc43635665be9da0f5e2f623bea9e22dd055c74324d7f12281527f162d39578897a70f2dc851710de29d3dd6fae4e768f2c841aa7b95834ceae5cb8183015260c0830152825180840184527f262d979b29df1669541daa3f02157701ff7ab07a6f5317d2e4d1c4c2106e17e381527f06af46ef2dc4282de259c7e02867c3c77a799af864e2370f61a8f1aec7a7f4098183015260e0830152825180840184527f0e45f7edf0975574a0234a5c0510af9251c52534b527f8af7bd17a4c6095909681527f2053c39f8961e378924eb488270ae9caab9db0bbf2d2937c0fef89a40000d21481830152610100830152825180840184527f24792fa51f5beafb9c4eff1a8bf1a9a6ccd9a02877d64ec78becc03bc9f7d1ff81527f2b3a9b5ddd9cf49b41974c5cb73e39997fd915a8df5b8458fa08d02a55a9644381830152610120830152825180840184527f1df1862c3cd967cf4e80a289e6fec969049ae11aac5a796ac650315d22e580fb81527f2afb83456939046324306525332ef3307638d6766ff90e40559aa45e471b871b81830152610140830152825180840184527f1c2f84adf95896cf0018ae79ebbdeb2468b1404953a855ec2facc4b49449543381527f0a175b5ba1452877e6cb7ac6ca850788f7e17a56f310cb5f18d9642b7bdcbcf281830152610160830152825180840184527f286ee766413caa93518a7570875801a9159d2e1315c1ab5bc9e52595a830c49581527f045175bd839a41eda5e9b6a40f76bbbf2723a68e1e7ecd739bd97ae093cd652881830152610180830152825180840184527f22ffd03e53836f0a9271398e34a792953979926b49a76c967c71cc8af35e04bb81527f02e2ae071779429f971820e5d680764ae55b0a0db4bc14709d47abc261cfe64c818301526101a0830152825180840184527f034ab86a5bccfa4f69637da232ba777f403c1aeb69ad6040d432a795e1b382c281527f09a353e2a34ad0af28688dbf4c01cc7de2c9878d6a1b80ce58e567d6c48b5bec818301526101c0830152825180840184527f1a65519a1ab82173d9cb9dc061f62c9d53ef95915b0cc76feb9feb90351e810d81527f29c0afd9c7eeae8e1635b3835090d59d5344bd56cf3c71487adcf6d8c5844348818301526101e0830152825180840184527f139c2f5bba86aea351df6608e3f1cd26b3c0b4371dca357e701a6025f94be1e781527f22399eb57ad19a4409a194335726da4d76a0cf2d0d89a50dbc7f687de1aad8c381830152610200830152825180840184527f0ff16a5ae01ecffc7815eb75c174ad14281aa49059929907518634d841c628f581527f2d867f1d311969273bc82b184e63d9269b182a881d3b302b242a4dc93462f7b781830152610220830152825180840184527f0821760c77fc15784afcaff815f73f8f90aa38ebe34d3b48695e3a6ad08ed8b081527f2f51bc8941e5c577f7ec1d5bb038bd902c7a5c7dd1389bab38b9c89ec4ab7d2981830152610240830152825180840184527f0ffd51787978d66be3b7e70e810c4575178c9f45674db1b870595ce7e2fb5f6f81527f17a63d56e53061da2fe13b311859cb536d18d6060100c393c5bb9251dfbad74a81830152610260830152825180840184527f024dcf715a66fd964f629553ae2bcb51c127b813ed7f9a4b28b481fb9e2c377281527f20244a5d7222400941070d0355a58d34ab8ff9b0d8935fd8c9225059f13fcaac81830152610280830152825180840184527f02987fe7cdb3cab8ebf18ecc8711b792828a0670bd9bcd17442c4a157325c8ef81527f1c9fa626c623b3102d77b2878a9de76dd9a1837521baa49c6874797a8e5a9626818301526102a0830152825180840184527f130b070560870337eb165683645e3c8522d6449e1367a35c5cf00dd4462fd96781527f01fe23c3926178b337c362c53b74d2233d08cf587bb0f114ebfe21542c9645e5818301526102c0830152825180840184527f153a7f8639e06461474e00018cde1ac1acf38089893c5515de20804922c0321981527f0939c3d22ab03cefb504fe214af93d65912ae3750ce6b756b0e02c9ce7a16e68818301526102e0830152825180840184527f234c57b9aab8dfb66855cbb2ed5c7dcaa724527a8b5abae05dbfc771da6679cc81527f22060d556338e2843aed696c8fc98bf0c6d133543b5c8774daf51221e0eafb4481830152610300830152825180840184527f2c931d2ddd0a37bf249ba13d4c0005dcf10f905b44f587692f7e19c4325beece81527f02d3dc1f3ed31519bae6c333e090615800a04cfdc9d6233f823114a44746d50181830152610320830152825180840184527f06246fd4811f690574ddc55745590439a8f73455e78fdd3521d65c7e007e6b4581527f1e132a30f5aa1d892595234280dd91b7728b3dadc7b72e58f2a95148f38ba21081830152610340830152825180840184527f1e0181f12b41a00b4ee891ed5a942bfdbae834b4faf95ce9e9aaa9bd2500ce6381527f1b6f032aa6b07625de54649d25628c9a5c45ab7c6c13a88fdd31ca7ecce024af81830152610360830152825180840184527f19b09aa2fcb34ae480845aa4ad56e01616ae845300e6f676fdb84f4bd396851b81527f295d8a6bfcce573b23d5eefd0aab6d32479423acd4956ce6deb5a67073f032d58183015261038083015282518084019093527f08d314a75c6b1f82d70f2edc7b7bf6e7397bc04bc6aaa0584b9e5bbb7689082b83527f0100000000000000000000000000000000000000000000000000000000000000908301526103a081019190915290565b6000610b6c7f30644e72e131a029b85045b68181585d2833e84879b9709143e1f593f000000183615d1b565b600080808080612216866003615c5f565b61222190600c615c5f565b67ffffffffffffffff81111561223957612239615d2f565b604051908082528060200260200182016040528015612262578160200160208202803683370190505b509050886000015160001b8160008151811061228057612280615c72565b602002602001018181525050886020015160001b816001815181106122a7576122a7615c72565b602002602001018181525050886040015160001b816002815181106122ce576122ce615c72565b60200260200101818152505060005b8681101561232f578888828181106122f7576122f7615c72565b905060200201358282600361230c9190615c5f565b8151811061231c5761231c615c72565b60209081029190910101526001016122dd565b5060608901515181612342886003615c5f565b8151811061235257612352615c72565b60209081029190910181019190915260608a0151015181612374886003615c5f565b61237f906001615c5f565b8151811061238f5761238f615c72565b6020908102919091010152606089015160400151816123af886003615c5f565b6123ba906002615c5f565b815181106123ca576123ca615c72565b60209081029190910101526060808a01510151816123e9886003615c5f565b6123f4906003615c5f565b8151811061240457612404615c72565b602090810291909101015260808901515181612421886003615c5f565b61242c906004615c5f565b8151811061243c5761243c615c72565b60209081029190910181019190915260808a015101518161245e886003615c5f565b612469906005615c5f565b8151811061247957612479615c72565b602090810291909101015260808901516040015181612499886003615c5f565b6124a4906006615c5f565b815181106124b4576124b4615c72565b6020908102919091010152608089015160600151816124d4886003615c5f565b6124df906007615c5f565b815181106124ef576124ef615c72565b602090810291909101015260a0890151518161250c886003615c5f565b612517906008615c5f565b8151811061252757612527615c72565b60209081029190910181019190915260a08a0151015181612549886003615c5f565b612554906009615c5f565b8151811061256457612564615c72565b602090810291909101015260a08901516040015181612584886003615c5f565b61258f90600a615c5f565b8151811061259f5761259f615c72565b602090810291909101015260a089015160600151816125bf886003615c5f565b6125ca90600b615c5f565b815181106125da576125da615c72565b602002602001018181525050612615816040516020016125fa9190615d5e565b604051602081830303815290604052805190602001206121d9565b9150612620826136a0565b604080516020810186905292975090955061263b91016125fa565b91506000612648836136a0565b50959a949950949750909550919350505050565b600080600061266961590d565b8581526101008581018051516020808501919091528151810151604080860191909152825181015160608087019190915292518301516080860152610120808a0180515160a0880152805184015160c080890191909152815184015160e089015290518501519587019590955293890180515194860194909452835182015161014086015283518101516101608601529251909101516101808401529051612717916125fa91849101615d94565b9150612722826136a0565b90979096509194509092505050565b61273961592c565b600061274361594b565b8481526101408401805151602080840191909152815181015160408085019190915282518101516060808601919091529251830151608085015260e080880180515160a0870152805184015160c0870152805183015191860191909152519092015161010084015290516127bd916125fa91849101615dc9565b91506127c8826136a0565b6020850152835260015b6127de60026019615dfe565b81101561285e576127fb836040516020016125fa91815260200190565b9250612806836136a0565b85612812846002615c48565b6019811061282257612822615c72565b6020020186612832856002615c48565b61283d906001615c5f565b6019811061284d5761284d615c72565b6020020191909152526001016127d2565b50612875826040516020016125fa91815260200190565b91506000612882836136a0565b8561288f60016019615ca1565b6019811061289f5761289f615c72565b60200201919091525050509250929050565b6128b961596a565b6000805b601c81101561290d576128dc846040516020016125fa91815260200190565b935060006128e9856136a0565b8584601c81106128fb576128fb615c72565b602002019190915250506001016128bd565b5090929050565b61291c61596a565b6000805b601c8110156129e25761293161594b565b84815260005b600881101561299b5786610160015183601c811061295757612957615c72565b6020020151816008811061296d5761296d615c72565b60200201518261297e836001615c5f565b6009811061298e5761298e615c72565b6020020152600101612937565b506129b0816040516020016125fa9190615dc9565b945060006129bd866136a0565b8685601c81106129cf576129cf615c72565b6020020191909152505050600101612920565b50909391925050565b6000806129f6615989565b83815260005b602c811015612a4a5785610180015181602c8110612a1c57612a1c615c72565b602002015182612a2d836001615c5f565b602d8110612a3d57612a3d615c72565b60200201526001016129fc565b50612a5f816040516020016125fa9190615e12565b91506000612a6c836136a0565b5096929550919350505050565b600080612a846159a8565b83815260005b612a966001601c615ca1565b811015612bd457856101a0015181601b8110612ab457612ab4615c72565b60200201515182612ac6836004615c48565b612ad1906001615c5f565b606d8110612ae157612ae1615c72565b60200201526101a086015181601b8110612afd57612afd615c72565b60200201516020015182826004612b149190615c48565b612b1f906002615c5f565b606d8110612b2f57612b2f615c72565b60200201526101a086015181601b8110612b4b57612b4b615c72565b60200201516040015182612b60836004615c48565b612b6b906003615c5f565b606d8110612b7b57612b7b615c72565b60200201526101a086015181601b8110612b9757612b97615c72565b60200201516060015182612bac836004615c48565b612bb7906004615c5f565b606d8110612bc757612bc7615c72565b6020020152600101612a8a565b50612a5f816040516020016125fa9190615e47565b600080612bf46159c7565b83815260005b601c811015612c4857856101c0015181601c8110612c1a57612c1a615c72565b602002015182612c2b836001615c5f565b601d8110612c3b57612c3b615c72565b6020020152600101612bfa565b50612a5f816040516020016125fa9190615e7c565b600080612c686159e6565b8381526101e085018051516020808401919091528151810151604080850191909152825181015160608086019190915292519092015160808401529051612a5f916125fa91849101615eb1565b60007f30644e72e131a029b85045b68181585d2833e84879b9709143e1f593f00000018284099392505050565b60007f30644e72e131a029b85045b68181585d2833e84879b9709143e1f593f00000018284089392505050565b60007f30644e72e131a029b85045b68181585d2833e84879b9709143e1f593f0000001612d5c837f30644e72e131a029b85045b68181585d2833e84879b9709143e1f593f0000001615ca1565b84089392505050565b6000612d7483610c6884613170565b9392505050565b81516000908190612d94908560015b6020020151612ce2565b929092149392505050565b6000806040518061010001604052807f30644e72e131a029b85045b68181585d2833e84879b9709143e1f593efffec5181526020016102d081526020017f30644e72e131a029b85045b68181585d2833e84879b9709143e1f593efffff118152602001609081526020017f30644e72e131a029b85045b68181585d2833e84879b9709143e1f593efffff71815260200160f081526020017f30644e72e131a029b85045b68181585d2833e84879b9709143e1f593effffd3181526020016113b081525090506000604051806101000160405280600081526020016001815260200160028152602001600381526020016004815260200160058152602001600681526020016007815250905060006001905060005b6008811015612ed457612eca82610c688884612d0f565b9150600101612eb3565b50612edd615a04565b60005b6008811015612f56576000858260088110612efd57612efd615c72565b60200201519050612f2881610c688a888660088110612f1e57612f1e615c72565b6020020151612d0f565b9050612f3381613170565b905080838360088110612f4857612f48615c72565b602002015250600101612ee0565b5060005b6008811015612fab576000888260088110612f7757612f77615c72565b60200201519050612f9481848460088110610e6457610e64615c72565b9050612fa08782612ce2565b965050600101612f5a565b50612fb68583612cb5565b979650505050505050565b600080612ff26001610c6d86610c688a60c0015188601c8110612fe657612fe6615c72565b60200201516001612d0f565b9050610de18582612cb5565b61018083015160009061300f615a23565b61301a8282866136da565b6130268286838761388b565b61303282868387613a79565b61303d828286613c80565b613048828286613e72565b613054828683876141d1565b61305f828286614ade565b61306a828286614eba565b610de1818660a001516151bc565b61308061596a565b81815260015b601c8110156130d7576130b88261309e600184615ca1565b601c81106130ae576130ae615c72565b6020020151613230565b8282601c81106130ca576130ca615c72565b6020020152600101613086565b50919050565b6130e56159c7565b6101608301516130ff6130fa82856000612f1e565b613170565b825260005b601c81101561316857600061311b60126001615c5f565b821161313d5761313a6130fa848785601c8110612d8a57612d8a615c72565b90505b808461314a846001615c5f565b601d811061315a5761315a615c72565b602002015250600101613104565b505092915050565b6000808290506000604051602081526020808201526020604082015282606082015260027f30644e72e131a029b85045b68181585d2833e84879b9709143e1f593f00000010360808201527f30644e72e131a029b85045b68181585d2833e84879b9709143e1f593f000000160a08201526020600060c08360055afa9050806131f857600080fd5b50506000519392505050565b6000610b6c827f30644e72e131a029b85045b68181585d2833e84879b9709143e1f593f0000001615ca1565b6000610b6c8283612cb5565b6000601c5b801561333757600083613255600184615ca1565b601c811061326557613265615c72565b6020020151905060008760e001516001846132809190615ca1565b601c811061329057613290615c72565b602002015190506000866132a5600186615ca1565b601c81106132b5576132b5615c72565b6020020151905060006132f16132d56132ce868c612cb5565b6002612cb5565b610c8c84610c686132eb89610c6860018b612d0f565b88612d0f565b905061331281610c686130fa61330c88610c6860018a612d0f565b87612ce2565b90506012851180613321578199505b50505050508061333090615ee5565b9050613241565b5092949350505050565b60408051808201909152600080825260208201526000613363601c602c615c5f565b61336e906002615c5f565b90506001604051855151604082015285516020015160608201528451608082015260408160606040840160075afa8216915060015b838110156133fc5760208102870160208202870181515160408501528151602001516060850152805160808501525050604080830160606040850160075afa8316925060408260808460065afa909216916001016133a3565b50805184526020810151602085015250505092915050565b60408051808201909152600080825260208201527f30644e72e131a029b85045b68181585d97816a916871ca8d3c208c16d87cfd4782602001517f30644e72e131a029b85045b68181585d97816a916871ca8d3c208c16d87cfd476134799190615ca1565b6134839190615d1b565b60208301525090565b81516020808401518351848301516040805194850195909552938301919091527f198e9393920d483a7260bfb731fb5d25f1aa493335a9e71297e485b7aef312c260608301527f1800deef121f1e76426a00665e5c4479674322d4f75edadd46debd5cd992f6ed60808301527f090689d0585ff075ec9e99ad690c3395bc4b313370b38ef355acdadcd122975b60a08301527f12c85ea5db8c6deb4aab71808dcb408fe3d1e7690c43d37b4ce6cc0166fa7daa60c083015260e08201526101008101919091527f260e01b251f6f1c7e7ff4e580791dee8ea51d87a358e038b4efe30fac09383c16101208201527f0118c4d5b837bcc2bc89b5b398b5974e9f5944073b32078b7e231fec938883b06101408201527f04fc6369f7110fe3d25156c1bb9a72859cf2a04641f99ba4ee413c80da6a5fe46101608201527f22febda3c0c0632a56475b4214e5615e11e6dd3f96e6cea2854a87d4dacc5e5561018082015260009081906101a0016040516020818303038152906040529050600080600873ffffffffffffffffffffffffffffffffffffffff16836040516136319190615f1a565b600060405180830381855afa9150503d806000811461366c576040519150601f19603f3d011682016040523d82523d6000602084013e613671565b606091505b509150915060008180602001905181019061368c9190615f49565b9050828015612fb657509695505050505050565b600080826fffffffffffffffffffffffffffffffff8116608082901c6136c5826121d9565b94506136d0816121d9565b9350505050915091565b60006136e7846006615222565b90507f183227397098d014dc2822db40c0ac2e9419f4243cdcb848a1f0fac9f8000000600061374a61374461371d856003612d0f565b610c6861373961372e8b6000615222565b610c688c601c615222565b610c688b601b615222565b83612cb5565b90506137cb6137c06137a761378e61377585610c6d61376a8d6002615222565b610c688e601b615222565b610c6d6137838c6003615222565b610c688d601c615222565b610c6d61379c8b6004615222565b610c688c601d615222565b610c6d6137b58a6005615222565b610c688b601e615222565b610c6d886001615222565b90506137ea81610c6d6137df866001612d0f565b610c688a602a615222565b90506137f68184612cb5565b90506138028185612cb5565b8552506000905061383e61383361382861381d88601b615222565b610c6d89601e615222565b610c8c886027615222565b610c6d876000615222565b905061384f81610c68846002612d0f565b905061386081610c68846001612d0f565b905061386c8183612cb5565b90506138788184612cb5565b9050808460015b60200201525050505050565b60008060006138c36138b96138a189601b615222565b610c6d6138af8b6011615222565b8a60600151612cb5565b8760800151612ce2565b90506138fc81610c686138f26138da8b601c615222565b610c6d6138e88d6012615222565b8c60600151612cb5565b8960800151612ce2565b905061392181610c686138f26139138b601d615222565b610c6d6138e88d6013615222565b905061394681610c686138f26139388b601e615222565b610c6d6138e88d6014615222565b92506000905061396b6138b961395d89601b615222565b610c6d6138af8b600d615222565b905061399081610c686138f26139828b601c615222565b610c6d6138e88d600e615222565b90506139b581610c686138f26139a78b601d615222565b610c6d6138e88d600f615222565b90506139da81610c686138f26139cc8b601e615222565b610c6d6138e88d6010615222565b915060009050613a026139fc6139f189601f615222565b610c6d8a6019615222565b84612cb5565b9050613a3881610c8c613a32613a198b602b615222565b610c6d613a278d601a615222565b8c6101800151612cb5565b85612cb5565b9050613a448185612cb5565b6040860152506000613a68613a32613a5d89601a615222565b610c688a602b615222565b606090950194909452505050505050565b600080613ad8613ac0613aa8613a936138f28a6015615222565b610c6d613aa18b6016615222565b8a51612cb5565b610c6d613ab68a6017615222565b8960200151612cb5565b610c6d613ace896018615222565b8860400151612cb5565b91506000613b10613af7613aed89601b615222565b8860800151612ce2565b610c6d613b058a6003615222565b610c688b6027615222565b90506000613b3b613b2289601c615222565b610c6d613b308b6000615222565b610c688c6028615222565b90506000613b66613b4d8a601d615222565b610c6d613b5b8c6001615222565b610c688d6029615222565b9050613ba6613b8e613b8085610c6d868d60000151612cb5565b610c6d848c60200151612cb5565b610c6d613b9c8c6004615222565b8b60400151612cb5565b93505050506000613bbb6139fc886020615222565b90506000613bcd6139fc896020615222565b90506000613c06613bed613be28b6022615222565b610c6d8c600a615222565b610c8c613bfb8c6022615222565b610c688d600a615222565b90506000613c2b613c25613c1a8789612cb5565b610c688d6020615222565b83612d0f565b9050613c378188612cb5565b90506000613c60613c52613c4c8d600a615222565b87612cb5565b610c8c613c4c8e6021615222565b60808a018390529050808960055b60200201525050505050505050505050565b6000613c8e60006001612d0f565b90506000613c9e60006002612d0f565b90506000613cae60006003612d0f565b90506000613ccb613cc088601c615222565b610c8c89601b615222565b90506000613ce8613cdd89601d615222565b610c8c8a601c615222565b90506000613d05613cfa8a601e615222565b610c8c8b601d615222565b90506000613d22613d178b6027615222565b610c8c8c601e615222565b905083613d3381610c68818b612ce2565b9050613d4381610c68878a612ce2565b9050613d5381610c688789612ce2565b9050613d6481610c688d6007615222565b9050613d70818a612cb5565b60c08b01525082613d8581610c68818b612ce2565b9050613d9581610c68868a612ce2565b9050613da581610c688689612ce2565b9050613db681610c688d6007615222565b9050613dc2818a612cb5565b60e08b01525081613dd781610c68818b612ce2565b9050613de781610c68858a612ce2565b9050613df781610c688589612ce2565b9050613e0881610c688d6007615222565b9050613e14818a612cb5565b6101008b01525080613e2a81610c68818b612ce2565b9050613e3a81610c68848a612ce2565b9050613e4a81610c688489612ce2565b9050613e5b81610c688d6007615222565b9050613e67818a612cb5565b9050808a6009613c6e565b613eb26040518060e00160405280600081526020016000815260200160008152602001600081526020016000815260200160008152602001600081525090565b613ebd84601c615222565b8152613eca84601d615222565b6020820152613eda846027615222565b6040820152613eea84602a615222565b6060820152613efa846029615222565b6080820152613f0a846028615222565b60a08201526000613f1c856002615222565b90506000613f2b866000615222565b90506000613f4184604001518560000151612d0f565b90506000613f5785602001518660200151612cb5565b60608601519091508690600090613f6e9080612cb5565b90506000613f8d613f8789602001518a60600151612cb5565b88612cb5565b90506000613fad613fa68a60a001518b60400151612ce2565b8a51612ce2565b9050613fbc613c4c8288612cb5565b9050613fdd613fd7613fd16132eb8487612d0f565b84612ce2565b83612ce2565b9050614005613ffa613fef8387612cb5565b610c688f6008615222565b610c6860018a612d0f565b6101408c0152505050506020850151608086015160009161402591612ce2565b9050600061404461403a886060015188612cb5565b8860200151612d0f565b9050600061406a6140558487612cb5565b610c6d613a328b60a001518c60000151612d0f565b905061409261408761407c838c612cb5565b610c688e6008615222565b610c68600189612d0f565b6101608b015250600091506140b490506140ad836011612ce2565b8751612cb5565b905060006140c28384612ce2565b90506140ce8182612ce2565b905060006140dd836009612cb5565b90506141076141016139fc6140fa8b60a001518c60000151612ce2565b8b51612ce2565b82612d0f565b60c0890181905260009061412390613f8790613fef908d612cb5565b90506141368b600a602002015182612ce2565b6101408c0152505086516000925061415e91506140ad906141579080612ce2565b8851612ce2565b905060006141a061417b83610c688a600001518b60a00151612d0f565b6020890151610c8c9061418e9080612ce2565b610c688b602001518c60800151612ce2565b90506141bd89600b6020020151610c6d613f87613fef858d612cb5565b89600b602002015250505050505050505050565b61427b604051806102c00160405280600081526020016000815260200160008152602001600081526020016000815260200160008152602001600081526020016000815260200160008152602001600081526020016000815260200160008152602001600081526020016000815260200160008152602001600081526020016000815260200160008152602001600081526020016000815260200160008152602001600081525090565b6142b061429761428c87601b615222565b610c68886028615222565b610c6d6142a5886027615222565b610c6889601c615222565b81526142f56142ea6142d16142c688601b615222565b610c6889601e615222565b610c6d6142df89601c615222565b610c688a601d615222565b610c8c876029615222565b6040820181905261430f9068100000000000000000612cb5565b6040820181905261432590610c8c87602a615222565b6040820181905281516143389190612ce2565b6040820181905261434e90610c68876005615222565b604082015280516143689068100000000000000000612cb5565b80825261438890610c6d61437d886027615222565b610c68896028615222565b808252602082018190526143a490610c8c61381d88601d615222565b602082018190526143ba90610c68876004615222565b60208201528051606082018190526143d790610c6d87601e615222565b606082018190526143fb90610c8c6143f0886029615222565b610c6d89602a615222565b6060820181905261441190610c68876000615222565b816060018181525050600061443b61443183602001518460400151612ce2565b8360600151612ce2565b905061444c81610c68886003615222565b905061446461445c876028615222565b614000612cb5565b6080830181905261447a90610c6d886027615222565b6080830181905261448d90614000612cb5565b608083018190526144a390610c6d88601d615222565b608083018190526144b690614000612cb5565b608083018190526144cc90610c6d88601c615222565b608083018190526144df90614000612cb5565b608083018190526144f590610c6d88601b615222565b6080830181905261450b90610c8c88601e615222565b6080830181905261452190610c68886005615222565b608083015261453461445c876029615222565b60a0830181905261454a90610c6d886028615222565b60a0830181905261455d90614000612cb5565b60a0830181905261457390610c6d886027615222565b60a0830181905261458690614000612cb5565b60a0830181905261459c90610c6d88601e615222565b60a083018190526145af90614000612cb5565b60a083018190526145c590610c6d88601d615222565b60a083018190526145db90610c8c88602a615222565b60a083018190526145f190610c68886000615222565b60a08301819052608083015160009161460a9190612ce2565b905061461b81610c68896004615222565b905061463561462b88601d615222565b8760400151612cb5565b60c0840181905261464e90610c6d613ab68a601c615222565b60c0840181905261466e90610c6d6146678a601b615222565b8951612cb5565b60c0840181905261468490610c6d896001615222565b60c0840181905260e084018190526146a190610c8c89601e615222565b60c08401526146b4613cc0886027615222565b6101408401526146d36146c888602a615222565b610c8c89601e615222565b6101208401526101408301516146f8906146ed9080612cb5565b846101400151612d0f565b61028084015261014083015161474d906147429061473b90610c6860017f30644e72e131a029b85045b68181585d2833e84879b9709143e1f593f0000001615ca1565b6001612ce2565b846101200151612cb5565b61016084018190526147849061477690610c6861476b8b6002615222565b610c688c6003615222565b610c68613c4c8a6009615222565b6101a08601526102808301516147a69061477690610c6861476b8b6002615222565b6101c086015260c08301516147ce90610c686147c38a6002615222565b610c688b6003615222565b6101e084015260006147ee6147e489601e615222565b8560e00151612d0f565b90506147fd6141018283612cb5565b6101a0850152614811613ace896029615222565b610100850181905261483590610c6d61482b8b6028615222565b8a60200151612cb5565b610100850181905261484f90610c6d613aa18b6027615222565b61010085015261486e61486389602a615222565b856101000151612d0f565b6101008501526000614884613cfa8a6029615222565b90506148fe6148c561374461473b88610140015160017f30644e72e131a029b85045b68181585d2833e84879b9709143e1f593f0000001610c689190615ca1565b610c6861473b88610100015160017f30644e72e131a029b85045b68181585d2833e84879b9709143e1f593f0000001610c689190615ca1565b610180860152610100850151614923906149189080612cb5565b866101000151612d0f565b6101c08601526101808501516149569061494290610c688c6006615222565b610c686149508c6009615222565b89612cb5565b6101e08801526102808501516149759061494290610c688c6006615222565b6102008801526101c08501516149949061494290610c688c6006615222565b6102208801526101a08501516149af90610c688b6006615222565b6102008601526149ce6149c38a6028615222565b610c8c8b601c615222565b610220860152610140850151614a2090613cfa90614a159061473b90610c6860017f30644e72e131a029b85045b68181585d2833e84879b9709143e1f593f0000001615ca1565b876102200151612cb5565b61024086018190526101e08601516102608701819052614a5791610c6d90610c68614a4c8e6005615222565b610c688f6002615222565b610260860181905260c0860151614a7b9190610c6d90610c68614a4c8e6000615222565b6102608601819052610200860151614a939190612ce2565b6102608601819052614aa990613fd19086612ce2565b6102a08601819052614ac390610c686149508c6009615222565b6102a0860181905287600c6020020152505050505050505050565b614b6560405180610220016040528060008152602001600081526020016000815260200160008152602001600081526020016000815260200160008152602001600081526020016000815260200160008152602001600081526020016000815260200160008152602001600081526020016000815260200160008152602001600081525090565b614b7e614b7385601b615222565b610c6d866002615222565b8152614b99614b8e85601c615222565b610c6d866003615222565b6020820152614bb7614bac85601d615222565b610c6d866004615222565b6040820152614bd5614bca85601e615222565b610c6d866005615222565b60608201528051614c0790614c0090614bf990614bf29080612cb5565b8451612cb5565b8351612cb5565b8251612cb5565b60808201526020810151614c4590614c3b90614c3190614c279080612cb5565b8460200151612cb5565b8360200151612cb5565b8260200151612cb5565b60a08201526040810151614c8390614c7990614c6f90614c659080612cb5565b8460400151612cb5565b8360400151612cb5565b8260400151612cb5565b60c08201526060810151614cc190614cb790614cad90614ca39080612cb5565b8460600151612cb5565b8360600151612cb5565b8260600151612cb5565b60e0820152608081015160a0820151614cda9190612ce2565b61010082015260c081015160e0820151614cf49190612ce2565b61012082015260a0810151614d1890614d0d9080612ce2565b826101200151612ce2565b61014082015260e0810151614d3c90614d319080612ce2565b826101000151612ce2565b610160820152610120810151614d529080612ce2565b6101e08201819052614d7390614d689080612ce2565b826101600151612ce2565b6101e0820152610100810151614d899080612ce2565b6101a08201819052614daa90614d9f9080612ce2565b826101400151612ce2565b6101a08201819052610160820151614dc191612ce2565b6101808201526101408101516101e0820151614ddd9190612ce2565b6101c0820152614df161374485600b615222565b6102008201819052610240840151610180830151614e1c92610c6d91610c6890610c8c8a6027615222565b8360126020020152614e4c8360136020020151610c6d836102000151610c68856101a00151610c8c8a6028615222565b8360136020020152614e7c8360146020020151610c6d836102000151610c68856101c00151610c8c8a6029615222565b8360146020020152614eac8360156020020151610c6d836102000151610c68856101e00151610c8c8a602a615222565b836015602002015250505050565b614f1760405180610160016040528060008152602001600081526020016000815260200160008152602001600081526020016000815260200160008152602001600081526020016000815260200160008152602001600081525090565b60006040518060800160405280614f4d7f10dc6e9c006ea38b04b1e03b4bd9490c0d03f98929ca1d7fb56821fd19d3b6e76121d9565b8152602001614f7b7f0c28145b6a44df3e0149b3d0a30b3bb599df9756d4dd9b84a86b38cfb45a740b6121d9565b8152602001614fa87e544b8338791518b2c7645a50392798b21f75bb60e3596170067d00141cac156121d9565b8152602001614fd67f222c01175718386f2e2e82eb122789e352e105a3b8fa852613bc534433ee428b6121d9565b90529050614ff3614fe886601b615222565b610c6d876002615222565b61012083018190526150279061501c90614742906150119080612cb5565b856101200151612cb5565b836101200151612cb5565b825261503485601c615222565b602083015261504485601d615222565b604083015261505485601e615222565b60608301528151602083015161507c91614431916150729190612ce2565b8460400151612ce2565b608083015261508f6139fc86600c615222565b61014083015281516150b1906150a790836000610e64565b8360800151612ce2565b60a08301526150dd8460166020020151610c6d846101400151610c688660a00151610c8c8b6027615222565b6102c085015260208201516150f8906150a790836001610e64565b60c08301526151248460176020020151610c6d846101400151610c688660c00151610c8c8b6028615222565b6102e0850152604082015161513f906150a790836002610e64565b60e083015261516b8460186020020151610c6d846101400151610c688660e00151610c8c8b6029615222565b6103008501526060820151615186906150a790836003610e64565b6101008301526151b48460196020020151610c6d846101400151610c68866101000151610c8c8b602a615222565b84601961387f565b60006151c9818481612d8a565b905060015b601a81101561521b5761521182610c6d8684601a81106151f0576151f0615c72565b602002015186615201600187615ca1565b60198110610e6457610e64615c72565b91506001016151ce565b5092915050565b60008282602b81111561523757615237615f6b565b602c811061524757615247615c72565b60200201519392505050565b604051806103c00160405280600081526020016000815260200160008152602001615291604051806040016040528060008152602001600081525090565b81526020016152b3604051806040016040528060008152602001600081525090565b81526020016152d5604051806040016040528060008152602001600081525090565b81526020016152f7604051806040016040528060008152602001600081525090565b8152602001615319604051806040016040528060008152602001600081525090565b815260200161533b604051806040016040528060008152602001600081525090565b815260200161535d604051806040016040528060008152602001600081525090565b815260200161537f604051806040016040528060008152602001600081525090565b81526020016153a1604051806040016040528060008152602001600081525090565b81526020016153c3604051806040016040528060008152602001600081525090565b81526020016153e5604051806040016040528060008152602001600081525090565b8152602001615407604051806040016040528060008152602001600081525090565b8152602001615429604051806040016040528060008152602001600081525090565b815260200161544b604051806040016040528060008152602001600081525090565b815260200161546d604051806040016040528060008152602001600081525090565b815260200161548f604051806040016040528060008152602001600081525090565b81526020016154b1604051806040016040528060008152602001600081525090565b81526020016154d3604051806040016040528060008152602001600081525090565b81526020016154f5604051806040016040528060008152602001600081525090565b8152602001615517604051806040016040528060008152602001600081525090565b8152602001615539604051806040016040528060008152602001600081525090565b815260200161555b604051806040016040528060008152602001600081525090565b815260200161557d604051806040016040528060008152602001600081525090565b815260200161559f604051806040016040528060008152602001600081525090565b81526020016155c1604051806040016040528060008152602001600081525090565b81526020016155e3604051806040016040528060008152602001600081525090565b8152602001615605604051806040016040528060008152602001600081525090565b905290565b6040518061022001604052806000815260200160008152602001600081526020016156566040518060800160405280600081526020016000815260200160008152602001600081525090565b81526020016156866040518060800160405280600081526020016000815260200160008152602001600081525090565b81526020016156b66040518060800160405280600081526020016000815260200160008152602001600081525090565b81526020016156e66040518060800160405280600081526020016000815260200160008152602001600081525090565b81526020016157166040518060800160405280600081526020016000815260200160008152602001600081525090565b81526020016157466040518060800160405280600081526020016000815260200160008152602001600081525090565b81526020016157766040518060800160405280600081526020016000815260200160008152602001600081525090565b81526020016157a66040518060800160405280600081526020016000815260200160008152602001600081525090565b81526020016157b3615a42565b81526020016157c0615a70565b81526020016157cd615a8f565b81526020016157da61596a565b815260200161580a6040518060800160405280600081526020016000815260200160008152602001600081525090565b81526020016156056040518060800160405280600081526020016000815260200160008152602001600081525090565b604051806101a00160405280600081526020016000815260200160008152602001600081526020016000815260200161587161592c565b815260200161587e61596a565b815260200161588b61596a565b815260200160008152602001600081526020016000815260200160008152602001600081525090565b604051806109400160405280604a906020820280368337509192915050565b604051806109400160405280604a905b60408051808201909152600080825260208201528152602001906001900390816158e35790505090565b604051806101a00160405280600d906020820280368337509192915050565b6040518061032001604052806019906020820280368337509192915050565b6040518061012001604052806009906020820280368337509192915050565b604051806103800160405280601c906020820280368337509192915050565b604051806105a00160405280602d906020820280368337509192915050565b60405180610da00160405280606d906020820280368337509192915050565b604051806103a00160405280601d906020820280368337509192915050565b6040518060a001604052806005906020820280368337509192915050565b6040518061010001604052806008906020820280368337509192915050565b604051806103400160405280601a906020820280368337509192915050565b604051806103800160405280601c905b615a5a615a04565b815260200190600190039081615a525790505090565b604051806105800160405280602c906020820280368337509192915050565b604051806103600160405280601b905b615aca6040518060800160405280600081526020016000815260200160008152602001600081525090565b815260200190600190039081615a9f5790505090565b60008060008060408587031215615af657600080fd5b843567ffffffffffffffff811115615b0d57600080fd5b8501601f81018713615b1e57600080fd5b803567ffffffffffffffff811115615b3557600080fd5b876020828401011115615b4757600080fd5b60209182019550935085013567ffffffffffffffff811115615b6857600080fd5b8501601f81018713615b7957600080fd5b803567ffffffffffffffff811115615b9057600080fd5b8760208260051b8401011115615ba557600080fd5b949793965060200194505050565b60008085851115615bc357600080fd5b83861115615bd057600080fd5b5050820193919092039150565b80356020831015610b6c577fffffffffffffffffffffffffffffffffffffffffffffffffffffffffffffffff602084900360031b1b1692915050565b7f4e487b7100000000000000000000000000000000000000000000000000000000600052601160045260246000fd5b8082028115828204841417610b6c57610b6c615c19565b80820180821115610b6c57610b6c615c19565b7f4e487b7100000000000000000000000000000000000000000000000000000000600052603260045260246000fd5b81810381811115610b6c57610b6c615c19565b60007fffffffffffffffffffffffffffffffffffffffffffffffffffffffffffffffff8203615ce557615ce5615c19565b5060010190565b7f4e487b7100000000000000000000000000000000000000000000000000000000600052601260045260246000fd5b600082615d2a57615d2a615cec565b500690565b7f4e487b7100000000000000000000000000000000000000000000000000000000600052604160045260246000fd5b8151600090829060208501835b82811015615d89578151845260209384019390910190600101615d6b565b509195945050505050565b60008183825b600d811015615db9578151835260209283019290910190600101615d9a565b5050506101a08201905092915050565b60008183825b6009811015615dee578151835260209283019290910190600101615dcf565b5050506101208201905092915050565b600082615e0d57615e0d615cec565b500490565b60008183825b602d811015615e37578151835260209283019290910190600101615e18565b5050506105a08201905092915050565b60008183825b606d811015615e6c578151835260209283019290910190600101615e4d565b505050610da08201905092915050565b60008183825b601d811015615ea1578151835260209283019290910190600101615e82565b5050506103a08201905092915050565b60008183825b6005811015615ed6578151835260209283019290910190600101615eb7565b50505060a08201905092915050565b600081615ef457615ef4615c19565b507fffffffffffffffffffffffffffffffffffffffffffffffffffffffffffffffff0190565b6000825160005b81811015615f3b5760208186018101518583015201615f21565b506000920191825250919050565b600060208284031215615f5b57600080fd5b81518015158114612d7457600080fd5b7f4e487b7100000000000000000000000000000000000000000000000000000000600052602160045260246000fdfea2646970667358221220713aa0ceca32cc201db9cc83c7b665d6bec0c53ae3338734af7de9935d933c1964736f6c634300081b0033",
  "devdoc": {
    "kind": "dev",
    "methods": {},
    "version": 1
  },
  "userdoc": {
    "kind": "user",
    "methods": {},
    "version": 1
  },
  "storageLayout": {
    "storage": [],
    "types": null
  }
}